:020000040800F2
:1000000020040020A12100081D2000081F20000856
:1000100021200008232000082520000800000000FF
:100020000000000000000000000000002720000881
:1000300029200008000000002B2000082D200008C7
:10004000C5210008C9210008CD2100083B20000877
:10005000D1210008D5210008D9210008DD210008A0
:10006000E1210008E5210008E9210008ED21000850
:10007000F1210008F5210008F9210008FD21000800
:100080000122000805220008092200080D220008AC
:100090001122000815220008192200081D2200085C
:1000A00021220008412000082522000843200008E2
:1000B000292200082D2200083122000835220008DC
:1000C000392200083D22000841220008452200088C
:1000D000492200084D22000851220008552200083C
:1000E00055200008592200085D22000838B5040098
:1000F00001D1012032BD00F02FF818B92870204638
:1001000000F021FB1EE0022180F83D1001680A6822
:1001100042F001020A6004E003D10A68520852006A
:100120000A60012180F83D100020704738B50400B6
:1001300001D1012032BD00F00FF818B92870204617
:1001400000F09AFB02206870211D206800F085F9FC
:1001500001206870002032BD04F13C0568787047CA
:1001600010B500F016F801E000F017F800F07DFA85
:100170002068DFF86810884205D1DFF800120A68AD
:1001800042F400420A60016841F001010160002070
:1001900010BD04460122206870470446080006D0BE
:1001A000042909D008290CD00C290FD013E02068AD
:1001B000C26842F002020DE02068C26842F0040208
:1001C00008E02068C26842F0080203E02068C268C4
:1001D00042F01002C260206801227047002C0140EA
:1001E00010B5044620680169890715D5C1688907DB
:1001F00012D56FF00201016101212177806910F0B1
:10020000030F204602D000F038FB03E000F0BDFAF7
:1002100000F087F80020207720680169490715D58C
:10022000C168490712D56FF00401016102212177ED
:10023000806910F4407F204602D000F01EFB03E0EE
:1002400000F0A3FA00F06DF8002020772068016923
:10025000090715D5C168090712D56FF008010161BA
:1002600004212177C06910F0030F204602D000F06E
:1002700004FB03E000F089FA00F053F80020207737
:1002800020680169C90615D5C168C90612D56FF085
:100290001001016108212177C06910F4407F2046D8
:1002A00002D000F0EAFA03E000F06FFA00F039F84B
:1002B0000020207720680169C90708D5C168C907EF
:1002C00005D56FF001010161204600F084FA206835
:1002D0000169090608D5C168090605D56FF08001D6
:1002E0000161204600F0CAFA20680169490608D574
:1002F000C168490605D56FF040010161204600F054
:10030000BEFA2068016989060AD5C168890607D541
:100310006FF0200101612046BDE8104000F0B0BA46
:1003200010BD204600F0ADBA10B500F13C042378B2
:10033000012B01D1022010BD012323700223637021
:100340004AB1042A0BD0082A0DD00C2A04BF006839
:1003500000F02CF90AE0006800F0AFF806E0006851
:1003600000F0CDF802E0006800F0F5F801206070C0
:100370006FE001202070022060707047442C014023
:1003800038B500F05BF801D1022032BDFFF7F1FF74
:10039000DFF85832286882681A40826008680028AE
:1003A00037D0102837D0202837D0302837D04028F1
:1003B0002BD050281ED0602820D070280BD0B0F54C
:1003C000805F03D0B0F5005F0CD02CE02868816816
:1003D000C908C9000CE000F02CF82868816841F0D9
:1003E000770105E000F025F82868816841F4804134
:1003F000816018E000F019F8502111E0CA684968DE
:10040000286800F00EF960210AE000F00EF84021A3
:1004100006E0002104E0102102E0202100E030216C
:10042000286800F010F90FE00000CA6849682868E1
:10043000E6E0CB684A68896828680CE1054605F162
:100440003C04207801287047012060700020207053
:1004500032BD0020207010BD000070B5644A0368F2
:10046000644C654D904218BFB0F1804F03D0A84254
:1004700018BFA04209D14E6823F070033343904265
:100480001CBFB0F1804FA84201D0A04203D1CC687C
:1004900023F4407323434C6923F080032343036018
:1004A00090428B68C3620B68836202D10969534A28
:1004B00011600121416170BD000030B5026A52082F
:1004C000520000F042F823F073032B438D6824F0B0
:1004D00002042C4300F067F80BD122F44072CD687F
:1004E00024F008042C434D692A438D6924F0040448
:1004F0002A434260836149684163046230BD70B53C
:10050000026A22F0100200F020F823F4E64343EAE6
:1005100005238D6824F0200444EA051400F043F814
:100520000DD1CD688E6924F0800444EA05144D692C
:1005300022F44062354324F0400442EA85024260DE
:10054000836149688163046270BD0262046A426823
:1005500083690D68704770B5026A22F48072026286
:10056000046A4268C3690D6823F073032B438D68E6
:1005700024F4007444EA052400F015F80DD1CD6888
:100580008E6924F4006444EA05244D6922F4405243
:10059000354324F4806442EA05124260C36149682D
:1005A000C163046270BD124DA842704730B5026A43
:1005B00022F480520262026A4368C4690D6824F41E
:1005C000E64444EA05248D6822F4005242EA0532EA
:1005D000FFF7E9FF04D14D6923F4804343EA851313
:1005E0004360C46149680164026230BD8800FFFF56
:1005F000002C01400008004000040040302C014065
:1006000010B5036A046A640864000462846924F013
:10061000F00444EA0212826123F00A0211430162EB
:1006200010BD10B5036A23F0100303628369046AE6
:1006300023F4704343EA0232826124F0A00242EACA
:100640000111016210BD826822F07002114341F075
:1006500007018160704710B5846824F47F4421430A
:10066000114341EA0321816010BD10B5036A0124E2
:100670008C40A343036202FA01F1036A1943016249
:1006800010BD0000654830B5654C0FF2A81520601C
:1006900095B000206060A0604FF6E850E060002058
:1006A00020616061A0612046FFF720FD10B1462166
:1006B00000F046F84FF48050109010A92046FFF744
:1006C0005FFE10B14C2100F03BF82046FFF72EFDF5
:1006D00010B1512100F034F80020009001906946DB
:1006E000204600F0FEF810B1582100F029F8002053
:1006F000099000224FF47A700A9009A900200B900B
:100700000C900D900E900F902046FFF70DFE10B14B
:10071000642100F015F800200290039004900590E9
:10072000069002A94FF40050079000200890204640
:1007300000F0AEF810B1702100F002F815B030BD35
:10074000284600F055B980B50068344988421BD16D
:100750003448016841F4006101600022006800F43F
:100760000060009000210098192000F05DF9192028
:1007700000F077F9002200211B2000F055F9BDE8B8
:1007800002401B2000F06DB901BD0168234A91426F
:1007900000D0704710B5007F01281BD100224FF414
:1007A000FC712148214C00F04FFA002240F2FF3149
:1007B000204600F049FA1E48017E10F821000A2860
:1007C00008DA4FF40071C1402046BDE81040012214
:1007D00000F03ABA10BD38B5044610492068884286
:1007E0001AD1134D287E010008D0072806DA4FF4ED
:1007F0008071C14001220C4800F026FA287E401C7E
:100800002876C0B20628A4BF00202876287E21685A
:1008100005EB80004088486331BD0000002C01409A
:100820002004002018100240000C01400008014084
:1008300004000020443A5C544D505C6E6978696550
:100840005C6769746875625C4E697869655F636C42
:100850006F636B735C4E697869655F636C6F636B24
:10086000735C4669726D776172655C5372635C7428
:10087000696D2E6300000000704770477047704735
:1008800070477047D960002180F83C10002010BDEF
:1008900010B590F83C20012A01D1022010BD0122A0
:1008A00080F83C20CB688C688A6923F4407323432A
:1008B0004C6823F4806323430C6823F400632343D0
:1008C0000C69496923F48053234323F400531943EB
:1008D00021F48041114321F4004111430268516425
:1008E000D1E730B500F13C021378012B01D1022091
:1008F00030BD012313700223537003685C6824F039
:1009000070045C6003685C680D682C435C6003687D
:100910009C6824F080049C600068836849681943DF
:100920008160012050700020107030BD10B500F0C3
:10093000B5F900F015F800F0C3F900F051FA00F035
:10094000E1FA00F04DFBFFF79DFE044C2046FFF757
:10095000DAFB00212046FFF703FCFEE7200400201D
:1009600000B593B00520099000210B914FF4803021
:100970000A90012111900C910D914FF4E010022189
:100980001290109109A800F099FB00B1FEE70F202A
:100990000490022102200590002006904FF4806010
:1009A00007900020089004A800F0F5FC00B1FEE7D5
:1009B000032000904FF4807001904FF400400290AB
:1009C000684600F0D5FD00B1FEE700F09CFD4FF455
:1009D0007A71B0FBF1F000F04EF8042000F05FF8FF
:1009E000002200214FF0FF3000F01EF813B000BDD0
:1009F000FEE700000901002806D52E4A00F00F008E
:100A0000104400F8041C70472B4A115470472B49BE
:100A10000A684FF6FF0300021A4000F4E06010433A
:100A2000274A10430860704738B5244B1B68C3F34E
:100A30000223C3F10704052C28BF04241D1D072D24
:100A400034BF0023DB1E012505FA04F4641E214097
:100A5000994005FA03F35B1E1A401143BDE8344088
:100A6000C8E7012100F01F029140164AFFE7400944
:100A700042F82010704710B5401EB0F1807F01D3BE
:100A8000012010BD104C60600F214FF0FF30FFF7C8
:100A9000B1FF0020A06007202060002010BD0A499F
:100AA000042808680CBF40F0040020F0040008602F
:100AB0007047000018ED00E000E400E00CED00E0FD
:100AC0000000FA0500E100E010E000E000F000B8EE
:100AD000704700002DE9F8474FF0000E0022604BF0
:100AE000DFF88081DFF880914FF00F0A012707FAC5
:100AF00002F60F683740B74240F0A0804C685CB304
:100B0000012C1AD0022C1FD0032C31D0112C17D05D
:100B1000122C1DD0554DAC421CBF554DAC421BD0C4
:100B2000544DAC421CBF544DAC4215D0534DAC4259
:100B30001CBF534DAC420FD01CE0D1F80CE019E0C3
:100B4000CC6804F1040E15E0CC6804F1080E11E045
:100B5000CC6804F10C0E0DE08C6814B94FF0040E53
:100B600008E0012C4FF0080E14BF4661066101E059
:100B70004FF0000EFF2F02D88446940004E0A2F14B
:100B8000080400F1040CA400DCF800500AFA04F692
:100B9000B5430EFA04F42C43CCF800404C68E40052
:100BA0004CD5D9F8004044F00104C9F800404FEAA0
:100BB000920CD9F8005005F001040094009C58F8FC
:100BC0002C50940004F00C040AFA04F6B5432D4EA0
:100BD000B04208BF00260ED02B4EB04208BF0126FF
:100BE00009D02A4EB04208BF022604D0284EB04297
:100BF0000CBF0326042606FA04F42C4348F82C40C4
:100C0000FD434C68E4031C684CBF3C432C401C6013
:100C10004C68A4035C684CBF3C432C405C604C684F
:100C2000E4029C684CBF3C432C409C604C68A4028E
:100C300047BFDC682743DF682F40DF60521C102A63
:100C4000FFF454AFBDE8F18702B9090401617047B0
:100C5000104A136803421CBF106000F01DB87047B3
:100C6000000401400800014018100240000011106B
:100C700000001210000021100000221000003110AE
:100C80000000321000080140000C0140001001403B
:100C900000140140140401407047000080B507486B
:100CA000016841F0100101600320FFF7B0FE002051
:100CB00000F040FD00F052FD002002BD0020024087
:100CC00030B53948394C3A4D85B0016841F01001D2
:100CD00001600022016801F0100100910099016893
:100CE00041F020010160016801F0200100910099AC
:100CF000016841F004010160016801F00401009104
:100D00000099016841F00801016049F6FF7100682F
:100D100000F00800009000982046FFF795FF0022A1
:100D200040F2FD112846FFF78FFF4FF4005001906D
:100D300001A9032002901F48FFF7CCFE40F2FF30CC
:100D400000F046F82046FFF7C5FE052000F039F810
:100D500000F034F84FF4E040019001A916480290E9
:100D60000120039000F02AF84FF40240019001A9FD
:100D70000320029000F022F84FF41C4000F021F80C
:100D80002046FFF7A7FE4FF4FC7000F021F800F0BA
:100D900015F8002200212820FFF746FE2820FFF743
:100DA00060FE05B030BD0000181002400008014090
:100DB000000C014000100140000021102846FFF700
:100DC00089BE019001A90120029002200490704781
:100DD000019001A9012002900320049070470000B7
:100DE0007CB5334C33480FF2D80520604FF0FF300C
:100DF00060604FF48070A060204600F0F5FC18B1F0
:100E00003E212846FFF7F4FD0121204600F0C4FEF4
:100E100043F2F226B0422AD001208DF804000122CC
:100E200000208DF805008DF8060001A9204600F08D
:100E300026FD18B14A212846FFF7DAFD01208DF87A
:100E400000008DF801008DF80200012200208DF8CD
:100E500003006946204600F05BFD18B15421284686
:100E6000FFF7C6FD32460121204600F08DFE73BD1E
:100E700080B500680F49884218D100F095FE0E48F1
:100E8000016841F000610160002200680B4900F038
:100E90000060009000980120086000210320FFF707
:100EA000C3FDBDE802400320FFF7DBBD01BD00002C
:100EB000D0040020002800401C1002403C044242A4
:100EC000443A5C544D505C6E697869655C6769743E
:100ED0006875625C4E697869655F636C6F636B739C
:100EE0005C4E697869655F636C6F636B735C4669C0
:100EF000726D776172655C5372635C7274632E63AA
:100F0000000000003EB5214C21480FF29005206002
:100F10000020A060E06060614FF46020E06100208C
:100F2000606001202061204600F046FE18B1432198
:100F30002846FFF75DFD09200090694601200190D9
:100F400000200290204600F0B1FE18B14D21284645
:100F5000FFF74EFD37BD00680D49884200D070474D
:100F600000B50C4885B0016841F40071016001A929
:100F7000006800F4007000900098022001900320A7
:100F800002900548FFF7A6FD05B000BDA0040020B3
:100F90000024014018100240000C0140443A5C5407
:100FA0004D505C6E697869655C6769746875625CF0
:100FB0004E697869655F636C6F636B735C4E6978CB
:100FC00069655F636C6F636B735C4669726D7761B3
:100FD00072655C5372635C6164632E6300000000A1
:100FE00080B52148214901604FF4E1314160002181
:100FF0008160C16001610C21416100218161C16199
:1010000000F000FF30B1BDE8044042210FF268005B
:10101000FFF7EEBC01BD00681449884200D070475C
:1010200010B51348134C86B0016841F4802101606B
:1010300001A9006800F48020009000984FF48060BF
:10104000019002200290032004902046FFF742FD09
:101050004FF40060019001A9002002900390204607
:10106000FFF738FD06B010BD6004002000480040C6
:101070001C100240000C0140443A5C544D505C6E20
:10108000697869655C6769746875625C4E697869DE
:10109000655F636C6F636B735C4E697869655F63F2
:1010A0006C6F636B735C4669726D776172655C53DC
:1010B00072635C75736172742E6300002DE9F843EE
:1010C0000446DFF86C542078C00747D5686800F004
:1010D0000C00042807D0686800F00C0008280AD12A
:1010E0006868C00307D52868800337D56068002882
:1010F00034D1012049E16068B0F5803F09D008B9DA
:1011000028680AE0B0F5A02F286806D140F48020B6
:101110002860286840F4803005E020F480302860A2
:10112000286820F480202860606858B100F014FF1F
:1011300007462868800311D400F00EFFC01B652805
:10114000F7D31FE100F008FF07462868800305D5A4
:1011500000F002FFC01B6528F7D313E12078DFF809
:10116000DC63800718D5686810F00C0F07D068683A
:1011700000F00C00082825D16868C00322D4286834
:10118000800702D520690128B3D12868616920F061
:10119000F80040EAC1002860207800073ED5A16928
:1011A000DFF89C03002965D00121016000F0D4FE26
:1011B0000746686A800722D400F0CEFEC01B0328D1
:1011C000F7D3DFE0206968B10120306000F0C4FE91
:1011D000074628688007D8D400F0BEFEC01B03284D
:1011E000F7D3CFE0306000F0B7FE074628688007ED
:1011F000D2D500F0B1FEC01B0328F7D3C2E0DFF860
:1012000038030068C0084FF47A71B0FBF1F0009029
:1012100000BF0098411E00280091F9D120784007B6
:101220006FD5E869C0004FF000080AD4E86940F0C3
:101230008050E8614FF00108E86900F080500090AC
:101240000098DFF80093D9F80000C0051FD4D9F842
:10125000000040F48070C9F8000000F07DFE0746F1
:10126000D9F80000C00512D400F076FEC01B652836
:10127000F6D387E0016000F06FFE0746686A8007DA
:10128000CCD500F069FEC01B0328F7D37AE0E068F4
:10129000012808D008B9286A09E00528286A06D17B
:1012A00040F004002862286A40F0010005E0400890
:1012B00040002862286A20F00400286241F289393F
:1012C000E06858B100F048FE0746286A800711D44C
:1012D00000F042FEC01B4845F7D353E000F03CFE4F
:1012E0000746286A800705D500F036FEC01B484532
:1012F000F7D347E0B8F1000F03D0E86920F0805041
:10130000E861E06900283FD0696801F00C01082914
:101310003FF4EFAE02282AD100F039F807462868DA
:10132000800105D500F018FEC01B0328F7D329E083
:10133000206AB0F5803F05D16868A16820F40030CC
:10134000084368606868216A20F474100843616A81
:1013500008436860012000F01BF8074628688001F8
:1013600012D400F0F9FDC01B0328F7D30AE000F007
:101370000EF807462868800106D500F0EDFDC01B79
:101380000328F7D3032000E00020BDE8F28300200B
:10139000306600F0E1BD2DE9F8436B4E044630683D
:1013A000884600F00700404502D200F079F852D19B
:1013B00020785F4F800705D57868A16820F0F0009D
:1013C000084378602078C0073DD56068012802D1C5
:1013D0003968890303E00228396802D1890102D4FF
:1013E00039E0890737D57968890840EA8100786053
:1013F00041F2893900F0B0FD0546606801280AD144
:10140000786800F00C0004281DD000F0A5FD401BFA
:101410004845F5D315E002280AD1786800F00C00A1
:10142000082810D000F098FD401B4845F5D308E08F
:10143000786810F00C0F06D000F08EFD401B484578
:10144000F6D303202AE0306800F00700804504D27C
:1014500000F026F801D0012020E02078400705D5D3
:101460007868E16820F4E06008437860207800073D
:1014700006D57868216920F4605040EAC1007860A0
:1014800000F018F87A683149C2F30312895CC84049
:1014900029490860002000F04DF90020BDE8F283E2
:1014A0003068C00848EAC0003060306800F00700CB
:1014B0004045704700B585B001A80FF2A001102289
:1014C00000F050FD0FF2A4000088ADF800002048A5
:1014D000016801F00C02082A12D101AAC1F383436A
:1014E000C903D25C09D500681249C0F340401DF819
:1014F0000000B1FBF0F0504303E01648504300E019
:101500000C4805B000BD0C48006870470A48104AF6
:10151000006812681049C2F3022206E006480C4A2D
:10152000006812680C49C2F3C222895CC840704747
:101530000010024000127A00000000200000424229
:101540008004424200700040002002400C2000084D
:101550000410024000093D00BC21000802030405FC
:10156000060708090A0B0C0D0E0F101001020000EF
:101570002DE9F041044682B02078634DC00750D574
:10158000A8690026C00009D4A86940F08050A8616D
:101590000126A86900F08050009000985B4F3868E1
:1015A000C00510D4386840F48070386000F0D4FC76
:1015B00080463868C00506D400F0CEFCA0EB0800D9
:1015C0006528F6D320E0E86910F440701EBF61681A
:1015D00001F44071884219D04D49E86901220A603E
:1015E00020F4407000220A60E861C0070ED500F0C8
:1015F000B3FC0746E869800708D400F0ADFCC01BC7
:1016000041F289318842F5D303201DE0E869616821
:1016100020F440700843E8611EB1A86920F08050B2
:10162000A8612078800705D52868A16820F440408B
:10163000084328602078C00605D52868E16820F4B2
:101640008000084328600020BDE8F68130B585B0F1
:10165000054601A80FF2C8012E4C102200F082FCB2
:101660000FF2CC000088ADF800000020012D1FD043
:10167000022D3DD0102D44D161682268D20140D5A1
:1016800001A8C1F38342C903805C09D56168224A7D
:10169000C1F340411DF80110B2FBF1F1484301E0F4
:1016A0001E494843616849022BD44000032126E0CB
:1016B000216A40F202320A40B2F5817F08BF4FF43E
:1016C00000401ED001F44072B2F5007F05D1616A7E
:1016D000890716D549F6404013E001F44071B1F591
:1016E000407F0ED1216889030BD54FF2244008E0DA
:1016F000FFF714FF6168C1F38131491C4900B0FB59
:10170000F1F005B030BD0000041002400070004050
:10171000400442420010024000127A0000093D00DD
:1017200002030405060708090A0B0C0D0E0F101022
:101730000102000010B50446074800684FF47A71B2
:10174000B0FBF1F0FFF797F9002221464FF0FF3090
:10175000FFF76AF9002010BD0000002080B5204886
:10176000016841F001010160006800F00100009093
:1017700000980320FFF74BF9002200216FF00B00C7
:10178000FFF752F9002200216FF00A00FFF74CF931
:10179000002200216FF00900FFF746F90022002126
:1017A0006FF00400FFF740F9002200216FF0030002
:1017B000FFF73AF9002200216FF00100FFF734F93A
:1017C000002200214FF0FF30FFF72EF90548016895
:1017D00021F0E0610160016841F00071016001BD2C
:1017E000181002400400014010B504003ED0607C97
:1017F00018B920742046FFF73BFB02206074204696
:1018000000F0E8F880BB204600F03FF960BB20689C
:101810004168C908C9004160DFF8B001A16819B189
:1018200041684908490041600168A26821F460717B
:1018300011430160606810F1010F04D10120FFF72E
:1018400005FF88B1401E21688A681209120142EA28
:1018500010428A6080B22168CA68120C40EA0240D5
:10186000C86000F0B1F818B104206074012010BD08
:10187000E07301206073A0736074002010BD2DE937
:10188000F04104000D4618BF002D37D0207C012800
:1018900008BF022037D0012020743C26022060744B
:1018A0004FF46167287832B96978714307FB0010FB
:1018B000A9780D180AE000F017F9804600F07DF8CD
:1018C000704307FB080600F075F8851900F01DF855
:1018D00090B92068416821F005014160204600F080
:1018E000BAF810F1010F0BD0A84209D2DFF8E010CE
:1018F000091800F05AF818B100F061F8012002E070
:10190000012000F05DF8BDE8F0812946204690E016
:1019100070B504000D4618BF002D40D0207C012872
:1019200001D1022070BD0120207402206074E8788B
:1019300022B9E07368786073A87807E000F0D4F803
:10194000E07300F03AF8607300F034F8A073A27B03
:10195000617BE07B00F0D0F820732870204600F017
:1019600057F805464FF46160B5FBF0F0192818D31D
:101970001821174EB0FBF1F006FB1055FFF7C5FF1D
:1019800058B9204600F067F810F1010F09D0A842BD
:1019900007D2311800F009F818B100F010F8012052
:1019A00070BD012000F00CF870BD20465BE078436C
:1019B00008FB0606A87897E00646687894E00420BD
:1019C0006074002020747047204675E02C6C004045
:1019D0008051010038B5040001D1012032BD00F072
:1019E00011F800F0B9FA054620684068000707D4EE
:1019F00000F0B2FA401BB0F57A7FF5D9032032BD72
:101A0000002032BD2068416821F008014160704724
:101A100000688169C269836989B29BB2994204D026
:101A2000C06980B240EA0340704792B242EA014086
:101A3000704770B504460D4600F027F8002638B907
:101A40002068290C8161A9B2C161FFF7BDFF00B117
:101A50000126304670BD0068016A406A89B280B2D2
:101A600040EA0140704770B504460D4600F00DF89D
:101A7000002638B92068290C0162A9B24162FFF73B
:101A8000A3FF00B10126304670BD38B5044600F012
:101A900063FA054620684168890607D400F05CFABD
:101AA000401BB0F57A7FF5D9032032BD416841F083
:101AB00010014160002032BD38B5044620684168FD
:101AC00021F01001416000F047FA054620684068A7
:101AD000800607D400F040FA401BB0F57A7FF5D9B4
:101AE000032032BD002032BD01090A2200F00F00A0
:101AF00002FB0100C0B2704710B517234B43092405
:101B0000B3FBF4F300F5FA60D2188218032903D26C
:101B1000401E00F00CF802E000F009F8801E0721DA
:101B2000B0FBF1F1C1EBC101401AC0B210BD02EB34
:101B300090016422091DB0FBF2F2891A4FF4C872B9
:101B4000B0FBF2F0401870470000000010B50446EA
:101B500020680168C90716D54168C90713D54068D0
:101B60004007204607D500F028FA21686FF00400EE
:101B70004860042002E000F021FA012060746FF058
:101B800001002168486010BD890001F1804101F524
:101B9000D84190B208607047880000F1804000F59D
:101BA000D840006880B270470249FFE70120086012
:101BB0007047000020000E42F8B5044600270025BB
:101BC000002C71D004F12406706820B9B060307028
:101BD0002046FFF7C0F9204600F0F2F87168C90608
:101BE0005ED401005CD1716821F4885141F002019A
:101BF0007160E3696168E2681943A368B3F5807FA7
:101C000014BF012B4FF480776369012B41EA420135
:101C10000FD132B9A269521E520342F40062174337
:101C200007E0726842F020027260B26842F001027E
:101C3000B2602268536823F469433B4353602268CF
:101C4000DFF8647193683B400B439360A268B2F580
:101C5000807F18BF012A02D12269521E1505226811
:101C6000D36A23F470032B43D3622268DFF83C313C
:101C700092681A408A4208D10021B160716821F04F
:101C8000020141F001017160F2BD706820F00200B4
:101C900040F010007060B06840F00100B06003E0F8
:101CA000706840F0100070600120F2BDF8B50A467F
:101CB000002100F1240300911C78012C01D10220A5
:101CC000F2BD01241C701F26576814680568072F91
:101CD00008D27F1E07EB8707D5F834C000F05DF807
:101CE0006C6312E00D2F08D2FF1F07EB8707D5F8B2
:101CF00030C000F052F82C6307E00D3F07EB870778
:101D0000D5F82CC000F049F8EC62072716689568F2
:101D100004680A2E08D30A3E06EB4606D4F80CC027
:101D200000F035F8E56006E006EB4606D4F810C092
:101D300000F02DF825611468102C18BF112C22D149
:101D400000681C4CA04219D11B48046824021AD414
:101D5000046844F4000404601068102813D1144887
:101D6000164A0068B0FBF2F00A2250430090009837
:101D700000281CBF0098401EF8D104E0586840F0CD
:101D8000200058600121002018700846F2BDB740BD
:101D90002CEA0707B5403D437047BE402CEA0606D3
:101DA000BC40344370470000FDF7E1FFFE0E1FFF0B
:101DB00000000020002401400824014040420F00A0
:101DC00038B5044620688168C90719D58168490873
:101DD0004900816000F0C0F8054620688068C007AF
:101DE0000ED500F0B9F8401B0328F6D3A06A40F0E6
:101DF0001000A062E06A40F00100E062012032BD04
:101E0000002032BD38B5050001D1012032BD05F1F9
:101E10003804607808B900F013F800F015F800F005
:101E200007F821F02A01FFE7416100F017F832BD01
:101E30002868016921F4904101612868416970476F
:101E400020702846FFF7E7B8242060702868C16832
:101E500021F40051C160284600F00CB82868C16820
:101E600041F40051C1600020606020206070A070CB
:101E7000002070472DE9F047044664252068016979
:101E8000E26821F44051114301611926C168304ACA
:101E90001140A26811432269114362691143C16074
:101EA0004169A26921F44071114341612949884285
:101EB0000ED1FFF733FB0746FFF730FB8046FFF7F5
:101EC0002DFB8146FFF72AFB8246FFF727FB0DE03B
:101ED000FFF71CFB0746FFF719FB8046FFF716FBD1
:101EE0008146FFF713FB8246FFF710FB06FB08F362
:101EF00061688900B3FBF1F306FB07F206FB09F703
:101F0000B7FBF1F7B7FBF5F705FB17331B013233CE
:101F1000B2FBF1F2B3FBF5F3B2FBF5F203F0F00321
:101F200003EB0212704306FB0AF3B0FBF1F0B3FBC4
:101F3000F1F3B0FBF5F005FB103000013230B0FBDF
:101F4000F5F0216800F00F0080188860BDE8F08788
:101F5000F3E9FFFF0038014001480068704700BF07
:101F6000E4040020103A07D330B4B1E83810103A36
:101F7000A0E83810F9D230BC530724BFB1E80810EC
:101F8000A0E8081044BF51F8043B40F8043BD207D6
:101F900024BF31F8022B20F8022B44BF0B780370CA
:101FA0007047083A07D3B1E80810083A40F8043BF4
:101FB00040F804CBF7D25307E4E7704770470000BE
:101FC0000E480F4A016841F001010160416811406B
:101FD00041600C4A016811400160016821F48021D0
:101FE0000160416821F4FE0141604FF41F018160EE
:101FF0004FF0006004490860704700000010024084
:102000000000FFF8FFFFF6FE08ED00E00000000012
:102010000000000001020304060708097047FEE7FC
:10202000FEE7FEE7FEE770477047704780B500F0B7
:1020300021F8BDE80140FEF749BD0448FFF786BD21
:1020400000E000BF0248FEF7CBB80000D00400203B
:102050002004002080B54FF48050FEF7F9FD4FF4C6
:102060000050FEF7F5FDBDE802404FF48040FEF75A
:10207000EFBD000002480168491C0160704700BFC5
:10208000E404002019E050F8041BCB0744BFA9F179
:1020900001035918121F0023042A41F8043BF9D206
:1020A0005FEA827C0B4604D54FF0000CA1F800C01B
:1020B0009B1CD10744BF0021197050F8042B002A43
:1020C000E1D1704710B450F8041B79B1026843683D
:1020D00002440830DC0744BFA9F10104E31852F8B8
:1020E000044B43F8044B091FF9D1ECE710BC7047CF
:1020F00010B5074979441831064C7C44163404E085
:102100000A68081D114488470146A142F8D110BD54
:1021100008000000280000006DFFFFFFC80000005D
:1021200020040020000000009DFFFFFF20000000B1
:102130000C000000000000200000000000A24A0483
:102140000A00FFFF0000FFFF0000FFFF0000FFFF8D
:102150000000FFFF0000FFFF0000000000F00BF890
:10216000002801D0FFF7C4FF0020AFF30080FEF786
:10217000DDFB00F002F80120704700F001B800001C
:102180000746384600F002F8FBE7000080B5AFF3E1
:102190000080024A11001820ABBEFBE726000200B7
:1021A0000148804701480047C11F0008B1210008CD
:1021B000AFF30080AFF30080FFF7D0FF0000000016
:1021C00001020304FFF7FEBFFFF7FEBFFFF7FEBFEC
:1021D000FFF7FEBFFFF7FEBFFFF7FEBFFFF7FEBF33
:1021E000FFF7FEBFFFF7FEBFFFF7FEBFFFF7FEBF23
:1021F000FFF7FEBFFFF7FEBFFFF7FEBFFFF7FEBF13
:10220000FFF7FEBFFFF7FEBFFFF7FEBFFFF7FEBF02
:10221000FFF7FEBFFFF7FEBFFFF7FEBFFFF7FEBFF2
:10222000FFF7FEBFFFF7FEBFFFF7FEBFFFF7FEBFE2
:10223000FFF7FEBFFFF7FEBFFFF7FEBFFFF7FEBFD2
:10224000FFF7FEBFFFF7FEBFFFF7FEBFFFF7FEBFC2
:10225000FFF7FEBFFFF7FEBFFFF7FEBFFFF7FEBFB2
:04000005080021B11D
:00000001FF
